:100000000C94FC350C942D360C942D360C942D3616
:100010000C942D360C942D360C942D360C942D36D4
:100020000C942D360C942D360C942D360C94A7CFB1
:100030000C942D360D9499C10C942D360C942D36BC
:100040000C942D360D942A120C942D360C942D36CA
:100050000C942D360C942D360D9443320D94CAB960
:100060000C942D360C9482440C942D360C942D3621
:100070000C942D360C942D360C942D360C942D3674
:100080000C942D360C942D360C942D360C942D3664
:100090000C94C6440C942D360C942D360C942D36AD
:1000A0000C942D360C942D360C942D360C942D3644
:1000B0000C942D360C942D360C942D360C942D3634
:1000C0000C942D360C942D360C942D360C942D3624
:1000D0000C942D360C942D360C942D360C942D3614
:1000E0000C942D36854389438E439643AB43C443DA
:1000F000E94313444801EA018E01AA01BE01E0016F
:100100004401C0016C0160017601A20178016A011D
:10011000D8012C01DE01DC01BA01D201FC018C0105
:10012000AC014C014A01C201C201C20140014001BF
:100130004001F40198014001AE019A015001820191
:10014000E801A00130014E01A401B40142015401B3
:1001500046019201A6013001F20184012E019001B5
:1001600064018601B801F001D00196017401CC014F
:10017000340170018A01C6017E01D00138015801A5
:100180009401084AD73B3BCE016E84BCBFFDC12F12
:100190003D6C74319ABD56833DDA3D00C77F11BE78
:1001A000D9E4BB4C3E916BAAAABE000000803F057B
:1001B000A84CCDB2D44EB93836A9020C50B99186AC
:1001C00088083CA6AAAA2ABE000000803F07634216
:1001D00036B79BD8A71A39685618AEBAAB558C1DDE
:1001E0003CB7CC5763BD6DEDFD753EF6177231BF60
:1001F000000000803F08000000BE922449123EAB80
:10020000AAAA2ABECDCCCC4C3E00000080BEABAA30
:10021000AAAA3E00000000BF000000803F000000CE
:100220000000084178D3BB4387D1133D190E3CC36E
:10023000BD4282AD2B3E68EC8276BED98FE1A93EED
:100240004C80EFFFBE01C4FF7F3F000000000000B4
:100250000D94E7390D9431950D94F2740D9498BB7B
:100260000D94A2BB0D94505A0D94D9BB0D942559F1
:100270000D94F1BB0D9489550D9495BC0D9469AE08
:100280000D94D4760D944DBB0D94C0670D9461BB55
:100290000D9453670D94A6760D949E760D9433BB02
:1002A0000D9410BB0D94975B0D9457BB0D947B6C14
:1002B0000D94F5BB0D94D6990D943B830D94F89253
:1002C0000D940C680D94A74B0D94C7BB0D946FAEA5
:1002D0000D9434570D94C7740D94F1670D942661F5
:1002E0000D94DDBB0D94C0380D94CFBB0D943668D2
:1002F0000D94B0740D94453F0D947C4E0D94EBBB62
:100300000D94ED530D9415BB0D948EBB0D94B6BB9F
:100310000D94AA8A0D94E3BB0D9458760D946E67E4
:100320000D94C4BB0D9470BB0D94F9BB0D94CBBB65
:100330000D94E4760D940BBB0D94D8390D94285A86
:100340000D9429BB0D9498740D943BBB0D947ABB0E
:100350000D94C68B0D948A670D9476760D94C076B5
:100360000D942D610D94476D0D9443BB0D943D5735
:100370000D94BABB0D9406760D94F9570D94B167A0
:100380000D94DB670D94AE760D94ED390D94E7BBBB
:100390000D9478A60D94F3AE0D94D5BB0D948446C0
:1003A0000D94FEBB0D942A760D9446570D94E46B84
:1003B0000D94DD740D94DB460D943E750D942175FE
:1003C0000D94B6670D94059D0D9444370D94956179
:1003D0000D941FBB0D9469670D9484630D944F5762
:1003E0000D94C0BB0D9484BB0D94B6760D94C63AA3
:1003F0000D9473AE0D94F9350D943B76486172649B
:10040000636F6465642044656661756C7420536530
:100410007474696E6773204C6F6164656400537413
:100420006F7265642073657474696E67732072659A
:100430007472696576656400202020452F44203D54
:1004400020002020204D393030204B004C696E6553
:10045000617220616476616E63652073657474698E
:100460006E67733A0046696C616D656E74207365E2
:100470007474696E67733A2044697361626C656471
:10048000002020204D32303020440046696C616DE0
:10049000656E742073657474696E67733A0020200A
:1004A000204D3230392053004175746F2D526574E0
:1004B000726163743A20533D3020746F2064697315
:1004C00061626C652C203120746F20696E746572D6
:1004D0007072657420657874727564652D6F6E6CCA
:1004E00079206D6F76657320617320726574726117
:1004F000637473206F72207265636F7665726965CD
:1005000073002046002020204D3230382053005206
:1005100065636F7665723A20533D45787472612049
:100520006C656E67746820286D6D2920463A53709B
:1005300065656420286D6D2F6D2900205A002046C6
:10054000002020204D3230372053005265747261F4
:1005500063743A20533D4C656E67746820286D6D56
:100560002920463A537065656420286D6D2F6D29EA
:10057000205A3A205A4C69667420286D6D29002053
:1005800044002049002020204D33303420500050BA
:100590004944206865617462656420736574746998
:1005A0006E67733A002044002049002020204D331C
:1005B00030312050005049442073657474696E676F
:1005C000733A00205A0020590020204D3230362046
:1005D0005800486F6D65206F666673657420286DDE
:1005E0006D293A00204500205A002059002058006B
:1005F00020420020540020204D323035205300414D
:100600006476616E636564207661726961626C65AF
:10061000733A20533D4D696E20666565647261745E
:100620006520286D6D2F73292C20543D4D696E2057
:1006300074726176656C20666565647261746520AC
:10064000286D6D2F73292C20423D6D696E696D7583
:100650006D207365676D656E742074696D65202803
:100660006D73292C20583D6D6178696D756D20582A
:1006700059206A65726B20286D6D2F73292C2020FC
:100680005A3D6D6178696D756D205A206A65726B8F
:1006900020286D6D2F73292C2020453D6D617869D0
:1006A0006D756D2045206A65726B20286D6D2F7306
:1006B000290020540020204D323034205300416363
:1006C00063656C65726174696F6E3A20533D616356
:1006D00063656C65726174696F6E2C20543D726540
:1006E000747261637420616363656C6572617469BF
:1006F0006F6E00204500205A0020590020204D3206
:1007000030312058004D6178696D756D204163630B
:10071000656C65726174696F6E20286D6D2F733220
:10072000293A00204500205A0020590020204D324F
:1007300030332058004D6178696D756D20666565B0
:1007400064726174657320286D6D2F73293A0020DF
:100750004500205A0020590020204D3932205800F1
:1007600053746570732070657220756E69743A00F9
:1007700053657474696E67732053746F7265640097
:10078000454550524F4D204572726F72006F6B0A93
:10079000002046002045004731205A0020423A0000
:1007A00020453A00543A005A206C6976652061640D
:1007B0006A757374206F7574206F662072616E673E
:1007C000652E2053657474696E6720746F20302E17
:1007D00020436C69636B20746F20636F6E74696E65
:1007E00075652E005A206C6976652061646A7573A0
:1007F00074206F7574206F662072616E67652E209D
:1008000053657474696E6720746F20300020573A06
:100810000020453A00543A004B494C4C3A20004DD8
:10082000373031004175746F0020452F443D004141
:100830006476616E6365204B3D00222832290054A6
:1008400000496E76616C6964205420636F64652E84
:1008500000556E6B6E6F776E204D20636F64653A46
:10086000202573200A006E6F2076616C6964206316
:100870006F6D6D616E64002C20002C20002C200018
:100880006E2F61002C20002C20002C20006E2F6188
:10089000002F00503A005761697420666F72205033
:1008A000494E4441207461726765742074656D70AF
:1008B000657261747572653A004D3232302053258D
:1008C0006900203A2000004C414E472053454C20FF
:1008D000464F524345440022283129003030303001
:1008E000303030302D303030302D303030302D3011
:1008F0003030302D303030303030303030303030FB
:100900000020555549443A0031002045585452556D
:100910004445525F434F554E543A005A61726962E2
:100920006F204D4B322E3500204D414348494E45F6
:100930005F545950453A00312E3000206261736592
:1009400064206F6E204D61726C696E204649524D75
:10095000574152455F55524C3A68747470733A2F40
:100960002F6769746875622E636F6D2F707275736F
:100970006133642F50727573612D4669726D7761B2
:1009800072652050524F544F434F4C5F564552535F
:10099000494F4E3A004649524D574152455F4E41EC
:1009A0004D453A50727573612D4669726D7761726B
:1009B0006520004D31313320530020002E002042AD
:1009C0003A0020453A00543A0020503A0020424074
:1009D0003A0020403A00202F003A00205400202FF7
:1009E0000020423A00202F006F6B20543A00256906
:1009F000206D696E2C2025692073656300496E7631
:100A0000616C6964204D20636F64653A2025732012
:100A10000A00556E6B6E6F776E204720636F6465BA
:100A20003A202573200A004D6573682062656420B2
:100A30006C6576656C696E67206E6F742061637497
:100A40006976652E000A002020000A4D65617375E5
:100A500072656420706F696E74733A000A5A20736D
:100A60006561726368206865696768743A20002C64
:100A7000004E756D20582C593A2000206D69637224
:100A80006F6E730045786365737369766520626580
:100A900064206C6576656C696E6720636F72726541
:100AA0006374696F6E3A200042656420636F7272EE
:100AB000656374696F6E2064617461206E6F742069
:100AC00076616C69640A0042656420636F727265C6
:100AD0006374696F6E20646174612076616C69640F
:100AE0000A004D4553485F484F4D455F5A5F534597
:100AF000415243483A20004D657368206265642086
:100B00006C6576656C696E67207768696C65206CCA
:100B10006F6F702066696E69736865642E000A00E5
:100B2000593A200000583A20003A206E6F20787918
:100B300020636C616D70696E670A003A20787920D5
:100B4000636C616D7065642E0A00002C2063616C1B
:100B50006962726174696F6E207A3A20004265643E
:100B6000206C6576656C696E672C20706F696E7499
:100B70003A2000005A206A697474657220646174B6
:100B8000612066726F6D205A2063616C2E206E6F3B
:100B9000742076616C69642E0A005A206A69747444
:100BA000657220646174612066726F6D205A2063E3
:100BB000616C2E2076616C69642E0A004E6F206392
:100BC0006C616D70696E6720666F72206669727302
:100BD000742063616C6962726174696F6E20706FFA
:100BE000696E742E0A0046697273742063616C69C1
:100BF00062726174696F6E20706F696E7420636CCD
:100C0000616D7065642E0A00473238205730003A13
:100C1000200000205A20736869667420286D6D29B1
:100C20003A0050494E44412074656D70657261749C
:100C30007572653A2000002F3600537465703A20B3
:100C40000000205A20736869667420286D6D293A67
:100C50000050494E44412074656D70657261747531
:100C600072653A20002F362028736B6970706564B6
:100C70002900537465703A2000005A45524F3A20BB
:100C8000000073746172742074656D7065726174B4
:100C90007572653A200050494E44412070726F626F
:100CA000652063616C6962726174696F6E20737430
:100CB00061727400473238205730000A00205A3AD7
:100CC000200020593A200020583A200020453A00C0
:100CD000205A3A0020593A0020453A00205A3A005A
:100CE00020593A00583A0043616C69627261746934
:100CF0006F6E206661696C65642120436865636B73
:100D000020746865206178657320616E6420727557
:100D10006E20616761696E2E004D32390062757315
:100D2000793A2070617573656420666F7220696E10
:100D300070757400627573793A20706175736564BB
:100D400020666F72207573657200627573793A2040
:100D500070726F63657373696E67002055706C6F96
:100D6000616420696E2070726F67726573730044EE
:100D7000495341424C45440A00454E41424C45448A
:100D80000A004653656E736F72200050415439312A
:100D900032355F696E69743A25640A004D617920C5
:100DA0003230203230313800436F6D70696C6564C9
:100DB0003A2000286E6F6E652C2064656661756C44
:100DC0007420636F6E66696729004D617920323047
:100DD00020323031382030303A34303A3236002048
:100DE000332E322E312D3537360A0073746172740A
:100DF00000466163746F7279205245534554001B5D
:100E00005B324A1B5B313B31485A617269626F2029
:100E100052657365617263681B5B323B3348616E78
:100E20006420446576656C6F706D656E7400250096
:100E3000202020202020002020202020200045529B
:100E40004153494E4720616C6C20646174610046D7
:100E50006163746F727920524553455400FFFFFF60
:100E60000000A0400000A0400000004000007A43C5
:100E7000000056439AD95B4300000000000080C088
:100E80009A99193E00007A430000524300005C43E7
:100E900000000000000080C09A99193E6563686FE9
:100EA0003A004572726F723A0000002110422063CE
:100EB000308440A550C660E770088129914AA16B33
:100EC000B18CC1ADD1CEE1EFF131121002733252CB
:100ED00022B5529442F772D662399318837BB35A83
:100EE000A3BDD39CC3FFF3DEE3622443342004019B
:100EF00014E664C774A44485546AA54BB5288509D3
:100F000095EEE5CFF5ACC58DD5533672261116306A
:100F100006D776F6669556B4465BB77AA719973822
:100F200087DFF7FEE79DD7BCC7C448E5588668A7AA
:100F3000784008611802282338CCC9EDD98EE9AF72
:100F4000F9488969990AA92BB9F55AD44AB77A960A
:100F50006A711A500A333A122AFDDBDCCBBFFB9EC2
:100F6000EB799B588B3BBB1AABA66C877CE44CC5DA
:100F70005C222C033C600C411CAEED8FFDECCDCD12
:100F8000DD2AAD0BBD688D499D977EB66ED55EF4AA
:100F90004E133E322E511E700E9FFFBEEFDDDFFC62
:100FA000CF1BBF3AAF599F788F8891A981CAB1EB07
:100FB000A10CD12DC14EF16FE18010A100C230E330
:100FC000200450254046706760B9839893FBA3DAEC
:100FD000B33DC31CD37FE35EF3B1029012F322D280
:100FE000323542145277625672EAB5CBA5A895897C
:100FF000856EF54FE52CD50DC5E234C324A01481D0
:10100000046674476424540544DBA7FAB79987B88B
:10101000975FE77EF71DC73CD7D326F2369106B01F
:101020001657667676154634564CD96DC90EF92F8B
:10103000E9C899E9898AB9ABA9445865480678276F
:1010400068C018E1088238A3287DCB5CDB3FEB1E2B
:10105000FBF98BD89BBBAB9ABB754A545A376A16BF
:101060007AF10AD01AB32A923A2EFD0FED6CDD4DBB
:10107000CDAABD8BADE89DC98D267C076C645C450F
:101080004CA23C832CE01CC10C1FEF3EFF5DCF7CCB
:10109000DF9BAFBABFD98FF89F176E367E554E745F
:1010A0005E932EB23ED10EF01E7C3C3E5E2B3D3F49
:1010B0002F5B5D3B2C2A225C004D3234004D3233D5
:1010C000202573006175746F25692E67004E6F745B
:1010D000205344207072696E74696E67000A002F95
:1010E000000A002E0044656C6574696F6E206661AD
:1010F000696C65642C2046696C653A200046696C11
:10110000652064656C657465643A002E002E002EBF
:10111000002E004E6F772066726573682066696CDA
:10112000653A20004E6F7720646F696E67206669AC
:101130006C653A20002220706F730022207061726B
:10114000656E743A2200535542524F5554494E45EC
:101150002043414C4C207461726765743A220074DC
:101160007279696E6720746F2063616C6C2073758F
:10117000622D67636F64652066696C6573207769AB
:10118000746820746F6F206D616E79206C65766570
:101190006C732E204D4158206C6576656C20697308
:1011A0003A00256920686F757273202569206D6982
:1011B0006E757465730054494D454F55543A004D52
:1011C0003131300046756C6C20525820427566668D
:1011D00065720022206661696C65643A204275661A
:1011E0006665722066756C6C2100456E7175656967
:1011F0006E6720746F207468652066726F6E743A33
:101200002022002200456E717565696E6720746F3B
:10121000207468652066726F6E743A202200222066
:101220006661696C65643A2042756666657220661F
:10123000756C6C210022004D36303000473120455E
:1012400033204632303000473120452D332046329E
:1012500030300070617439313235206E6F74207215
:101260006573706F6E64696E67202831292E0A00DD
:1012700070617439313235206E6F7420726573700D
:101280006F6E64696E67202832292E0A00706174BF
:1012900039313235206E6F7420726573706F6E64F1
:1012A000696E67202833292E0A00504154393132A3
:1012B000355F696E69743A25640A005A6172696221
:1012C0006F204D4B322E35206F6B005A6172696270
:1012D0006F204D4B322E352072656164792E007A75
:1012E0005F6D696E3A20007A5F6D61783A20005A2E
:1012F000204F666673657400795F6D696E3A2000F1
:101300005920767A64616C656E6F7374206F642007
:101310006D696E3A00592064697374616E6365206B
:1013200066726F6D206D696E3A00416E6F0059658F
:101330007300785F6D696E3A200044657461696C72
:10134000792058595A206B616C2E0058595A2063E5
:10135000616C2E2064657461696C73004E796E69EE
:101360002070726F76656475207A206B616C69629B
:10137000726163692E00492077696C6C2072756E0A
:10138000207A2063616C6962726174696F6E206E8D
:101390006F772E004E796E692070726F7665647576
:1013A0002078797A206B616C6962726163692E20A2
:1013B0005A616265726520746F20707269626C692F
:1013C0007A6E65203132206D696E2E004920776972
:1013D0006C6C2072756E2078797A2063616C69621A
:1013E000726174696F6E206E6F772E20497420775A
:1013F000696C6C2074616B6520617070726F782EFF
:10140000203132206D696E732E004E796E69207026
:10141000726564656872656A6920747279736B7548
:101420002070726F20504C412E004E6F7720492063
:1014300077696C6C2070726568656174206E6F7A74
:101440007A6C6520666F7220504C412E00446F62AA
:1014500072792064656E2C206A73656D20766173E5
:1014600065207469736B61726E61204F7269676980
:101470006E616C2050727573612069332E20436851
:1014800063657465206162796368205661732070BA
:10149000726F7665646C61206B616C696272616306
:1014A0006E696D2070726F636573656D3F0048698A
:1014B0002C204920616D20796F7572204F72696709
:1014C000696E616C2050727573612069332070728F
:1014D000696E7465722E20576F756C6420796F7514
:1014E000206C696B65206D6520746F206775696479
:1014F0006520796F75207468726F756768207468ED
:10150000652073657475702070726F636573733FC7
:10151000005A61636E75207469736B6E6F75742009
:101520006C696E6B752061205679206275646574F4
:101530006520706F737475706E6520736E697A6F55
:1015400076617420747279736B75206F7461636552
:101550006E696D20746C616369746B6120646F6B7C
:101560007564206E65646F7361686E657465206F65
:101570007074696D616C6E69207679736B792E2059
:1015800050726F686C65646E657465207369206F56
:101590006272617A6B792076206E61736920707255
:1015A0006972756363652076206B617069746F6C16
:1015B00065204B616C6962726163650049207769DF
:1015C0006C6C20737461727420746F207072696E19
:1015D00074206C696E6520616E6420796F75207768
:1015E000696C6C206772616475616C6C79206C6FDA
:1015F00077657220746865206E6F7A7A6C652062F8
:101600007920726F746174696E6720746865206BED
:101610006E6F622C20756E74696C20796F75207204
:1016200065616368206F7074696D616C20686569BD
:101630006768742E20436865636B2074686520704A
:101640006963747572657320696E206F75722068A6
:10165000616E64626F6F6B20696E20636861707485
:1016600065722043616C6962726174696F6E2E00ED
:101670004E796E69207A6B616C696272756A692055
:10168000767A64616C656E6F7374206D657A69201B
:101690006B6F6E63656D20747279736B7920612056
:1016A000706F76726368656D2068656174626564E9
:1016B000752E004E6F7720492077696C6C2063612E
:1016C0006C6962726174652064697374616E6365CC
:1016D000206265747765656E20746970206F66207E
:1016E000746865206E6F7A7A6C6520616E6420681C
:1016F00065617462656420737572666163652E004E
:101700004E656A6472697620706F6D6F63692073CD
:10171000656C667465737475207A6B6F6E746F6C2C
:10172000756A69206E656A63617374656A7369209E
:10173000636879627920767A6E696B616A69636938
:101740002070726920736573746176656E692074A8
:1017500069736B61726E792E0046697273742C2006
:10176000492077696C6C2072756E207468652073EF
:10177000656C667465737420746F20636865636B51
:10178000206D6F737420636F6D6D6F6E2061737366
:10179000656D626C792070726F626C656D732E007E
:1017A0005370757374656E692057697A61726461EC
:1017B0002076796D617A6520756C6F7A656E65202B
:1017C0007679736C65646B79207673656368206BDA
:1017D000616C6962726163692061207370757374F2
:1017E00069206B616C69627261636E692070726FEF
:1017F000636573206F64207A616361746B752E205A
:10180000506F6B7261636F7661743F0052756E6EDC
:10181000696E672057697A6172642077696C6C2001
:1018200064656C6574652063757272656E7420639F
:10183000616C6962726174696F6E20726573756C38
:10184000747320616E642073746172742066726FA9
:101850006D2074686520626567696E6E696E672EBB
:1018600020436F6E74696E75653F004368636574ED
:1018700065206F70616B6F76617420706F736C653B
:10188000646E69206B726F6B206120706F7A6D657A
:101890006E697420767A64616C656E6F7374206D06
:1018A000657A6920747279736B6F75206120686541
:1018B00061746265643F00446F20796F75207761C1
:1018C0006E7420746F20726570656174206C617332
:1018D00074207374657020746F20726561646A751A
:1018E00073742064697374616E63652062657477D4
:1018F00065656E206E6F7A7A6C6520616E64206813
:101900006561746265643F0057697A617264612041
:101910006D757A657465206B64796B6F6C69762080
:101920007A6E6F76752073707573746974207A207F
:101930006D656E752043616C6962726174696F6E6A
:10194000202D3E2057697A61726400596F752063BB
:10195000616E20616C7761797320726573756D6556
:10196000207468652057697A6172642066726F6DB1
:101970002043616C6962726174696F6E202D3E2034
:1019800057697A6172642E004A6520746F20504C4A
:10199000412066696C616D656E743F004973206912
:1019A0007420504C412066696C616D656E743F0017
:1019B00050726F73696D20766C6F7A746520504C2D
:1019C000412066696C616D656E7420646F20657876
:1019D000747275646572752C20706F207465207345
:1019E0007469736B6E65746520746C616369746B84
:1019F0006F2070726F207A61766564656E6920660B
:101A0000696C616D656E74752E00506C65617365EF
:101A100020696E7365727420504C412066696C6158
:101A20006D656E7420746F207468652065787472BB
:101A3000756465722C207468656E207072657373AE
:101A4000206B6E6F6220746F206C6F61642069740C
:101A50002E0050726F73696D207A617665647465CB
:101A600020504C412066696C616D656E7420612068
:101A7000706F207465206F626E6F76746520576991
:101A80007A6172646120737469736B6E7574696DC9
:101A900020726573657420746C616369746B612E68
:101AA00000506C65617365206C6F616420504C411F
:101AB0002066696C616D656E7420616E6420746867
:101AC000656E20726573756D652057697A61726401
:101AD000206279207265626F6F74696E6720746826
:101AE00065207072696E7465722E0050726564654F
:101AF00068726976616D20747279736B752E2050EF
:101B0000726F73696D2063656B656A74652E005032
:101B1000726568656174696E67206E6F7A7A6C654C
:101B20002E20506C6561736520776169742E004AC0
:101B3000652066696C616D656E74207A6176656496
:101B4000656E3F0049732066696C616D656E742037
:101B50006C6F616465643F00567365206A65206838
:101B60006F746F766F2E00416C6C20697320646F08
:101B70006E652E204861707079207072696E74698C
:101B80006E67210050726F73696D206F63697374A3
:101B90006574652068656174626564206120737492
:101BA00069736B6E65746520746C616369746B6FC7
:101BB0002E00506C6561736520636C65616E2068F2
:101BC00065617462656420616E64207468656E206E
:101BD000707265737320746865206B6E6F622E007F
:101BE00050726F73696D206E61686C65646E6574A8
:101BF0006520646F206D616E75616C752061206F6A
:101C00007072617674652070726F626C656D2E20E3
:101C1000506F207465206F626E6F7674652057690F
:101C20007A61726461207265626F6F746F76616E43
:101C3000696D207469736B61726E792E00506C65EA
:101C400061736520636865636B206F7572206861DE
:101C50006E64626F6F6B20616E64206669782074B9
:101C600068652070726F626C656D2E205468656EB9
:101C700020726573756D65207468652057697A6197
:101C80007264206279207265626F6F74696E67207A
:101C9000746865207072696E7465722E0057697A77
:101CA00061726400205761746368646F67205265D5
:101CB00073657400496E666F726D61636500496E8D
:101CC000666F2073637265656E0043656B616E6954
:101CD000206E61207A63686C61646E75746920504F
:101CE000494E44410057616974696E6720666F729E
:101CF0002050494E44412070726F626520636F6FBF
:101D00006C696E670043656B616E69206E61207A55
:101D100063686C61646E75746920747279736B7931
:101D2000206120706F646C6F7A6B792E0057616947
:101D300074696E6720666F72206E6F7A7A6C6520A8
:101D4000616E642062656420636F6F6C696E67000A
:101D50004B616C2E207072766E6920767273747689
:101D600079004669727374206C61796572206361D1
:101D70006C2E005761697420666F722075736572EE
:101D80002E2E2E00506F757A697465206265686525
:101D90006D207469736B750055736564206475728A
:101DA000696E67207072696E740042796C6F20767C
:101DB0007973756E7574692066696C616D656E7492
:101DC000752075737065736E653F0057617320668B
:101DD000696C616D656E7420756E6C6F61642073E3
:101DE00075636365737366756C3F0056796A6D6FD2
:101DF00075742066696C616D656E7400556E6C6FEC
:101E000061642066696C616D656E74005679736FEC
:101E10007576616D2066696C616D656E7400556ED6
:101E20006C6F6164696E672066696C616D656E7464
:101E300000556E6B6E6F776E20636F6D6D616E64B3
:101E40003A2022004C616469740054756E65005339
:101E5000442063617264205B466C73684169725D03
:101E6000005344206361726420205B6E6F726D6169
:101E70006C5D00537461626C6520616D6269656EB2
:101E8000742074656D70657261747572652032318D
:101E90002D323643206973206E6565646564206168
:101EA000207269676964207374616E6420697320AD
:101EB00072657175697265642E005465706C6F741B
:101EC0006E69206B616C6962726163652073656C19
:101ED00068616C610054656D7065726174757265DE
:101EE0002063616C6962726174696F6E20666169FA
:101EF0006C6564005465706C2E206B616C2E202024
:101F00005B7A61705D0054656D702E2063616C2E8C
:101F10002020205B6F6E5D005465706C2E206B611D
:101F20006C2E20205B7679705D0054656D702E20DC
:101F300063616C2E20205B6F66665D005465706C7B
:101F40006F746E69206B616C696272616365206495
:101F50006F6B6F6E63656E612061206A65206E79BC
:101F60006E6920616B7469766E692E205465706CA1
:101F70006F746E69206B616C696272616369206A5B
:101F800065206D6F7A6E6F206465616B7469766F22
:101F90007661742076206D656E75204E6173746174
:101FA00076656E692D3E5465706C2E206B616C2ECB
:101FB0000054656D70657261747572652063616C43
:101FC0006962726174696F6E2069732066696E69F7
:101FD0007368656420616E64206163746976652E40
:101FE0002054656D702E2063616C69627261746942
:101FF0006F6E2063616E2062652064697361626C3C
:10200000656420696E206D656E7520536574746912
:102010006E67732D3E54656D702E2063616C2E00CB
:102020005465706C2E206B616C2E202020202020A7
:10203000202020200054656D702E2063616C2E20BE
:10204000202020202020202020005465706C6F74F8
:10205000610054656D706572617475726500506FD2
:1020600064706F726100537570706F7274005A61A2
:10207000737461766974207469736B0053746F7044
:10208000207072696E740053544F505045442E2096
:1020900000537465707261746520746F6F20686995
:1020A00067683A20004A65207469736B6F767920FF
:1020B000706C6174206E6120686561746265643F54
:1020C00000497320737465656C20736865657420BE
:1020D0006F6E20686561746265643F0043656C6B78
:1020E0006F767920636173203A00546F74616C20BD
:1020F0007072696E742074696D65203A0046696C6F
:10210000616D656E742063656C6B656D203A00547B
:102110006F74616C2066696C616D656E74203A0045
:10212000436173207469736B75203A2020005072EC
:10213000696E742074696D653A20200046696C618F
:102140006D656E74203A20200046696C616D656E85
:102150007420757365643A20200053746174697348
:1021600074696B61202000537461746973746963CE
:10217000732020004368796261202D20446F736CC6
:102180006F206B2070726570697375207374617451
:1021900069636B652070616D6574692100457272B9
:1021A0006F72202D20737461746963206D656D6F8B
:1021B000727920686173206265656E206F76657242
:1021C0007772697474656E00527963686C6F7374AA
:1021D0000053706565640054726964656E692020FF
:1021E0002020205B4361735D00536F72743A20209E
:1021F000202020205B54696D655D00547269646520
:102200006E692020205B5A61646E655D00536F72B9
:10221000743A2020202020205B4E6F6E655D0054B4
:10222000726964656E69205B416265636564615DC6
:1022300000536F72743A20205B416C706861626574
:10224000745D0054726964656E6920736F75626FA6
:10225000727500536F7274696E672066696C65737E
:102260000020536F667477617265205265736574E0
:10227000004C65686B65207A6B6F73656E693A0018
:10228000536C6967687420736B65773A004D6F64AF
:10229000202020202020205B74696368795D004D38
:1022A0006F646520202020205B73696C656E745D0F
:1022B000004D6F6420205B7679732E2076796B6FEA
:1022C0006E5D004D6F6465205B6869676820706FA4
:1022D0007765725D0053746176206B6F6E632E209C
:1022E0007370696E2E0053686F7720656E6420737B
:1022F000746F70730054657A6B65207A6B6F7365C9
:102300006E693A0053657665726520736B65773A3E
:10231000004E61737461767465207465706C6F74BF
:10232000753A005365742074656D706572617475DB
:1023300072653A004E6173746176656E690053652B
:102340007474696E6773004368796261207A6170A2
:102350006F6A656E6900576972696E67206572728F
:102360006F720050726F686F7A656E6500537761A7
:10237000707065640053656C6620746573742073B7
:10238000746172742020005469736B6F76792076C3
:10239000656E742E3A005072696E742066616E3AF2
:1023A000005A6B6F6E74726F6C756A7465203A00B8
:1023B000506C6561736520636865636B203A0053F8
:1023C000656C662074657374204F4B004E657A61AE
:1023D000706F6A656E6F20202020004E6F7420633E
:1023E0006F6E6E6563746564004D6F746F72004844
:1023F00065617465722F546865726D6973746F726C
:102400000053656E7A6F722066696C616D656E74DB
:10241000753A0046696C616D656E742073656E7304
:102420006F723A00546F6369207365005370696E70
:102430006E696E67004E65746F6369207365004E48
:102440006F74207370696E6E696E67005072656498
:102450006E692F6C6576792076656E742E004672F3
:102460006F6E742F6C6566742066616E73005465C0
:1024700073742076656E74696C61746F7275004652
:10248000616E20746573740053656C667465737453
:102490002073656C68616C20200053656C66746500
:1024A0007374206661696C65642020004C657679E0
:1024B0002076656E742E3A00457874727564657284
:1024C0002066616E3A004C6576792076656E7420E0
:1024D0006E61207472797363653F004C6566742089
:1024E000686F74656E642066616E3F0053656C664C
:1024F00074657374206572726F72202100456E647A
:1025000073746F70206E6F742068697400456E6418
:1025100073746F707300456E6473746F70005072E3
:1025200065646E69207469736B6F76792076656E69
:10253000743F0046726F6E74207072696E7420660C
:10254000616E3F004B6F6E74726F6C61205A206138
:10255000786973202000436865636B696E67205A51
:1025600020617869732020004B6F6E74726F6C610C
:1025700020592061786973202000436865636B6986
:102580006E67205920617869732020004B6F6E744C
:10259000726F6C6120582061786973202000436855
:1025A00065636B696E67205820617869732020002D
:1025B0004B6F6E74726F6C6120686F74656E64200F
:1025C0002000436865636B696E6720686F74656E91
:1025D000642020004B6F6E74726F6C612073656EA7
:1025E0007A6F727500436865636B696E6720736507
:1025F0006E736F727320004B6F6E74726F6C61201C
:10260000656E6473746F707300436865636B696EA5
:102610006720656E6473746F7073004B6F6E7472B5
:102620006F6C612062656420202020200043686573
:10263000636B696E6720626564202020202000564D
:102640007365204F4B202020202020202020202098
:1026500000416C6C20636F727265637420202020CF
:10266000202000426564202F204865617465720057
:1026700044656C6B61206F73790041786973206CDD
:10268000656E677468004F73610041786973005329
:10269000656C667465737420202020202020202023
:1026A0000057726974696E6720746F2066696C6583
:1026B0003A2000766F6C756D652E696E69742066C0
:1026C00061696C6564002053697A653A20004B614A
:1026D0007274612076796A6D757461004361726409
:1026E0002072656D6F766564005344207072696E68
:1026F00074696E67206279746520006F70656E2062
:102700006661696C65642C2046696C653A20006FCF
:1027100070656E526F6F74206661696C6564004B02
:102720006172746120766C6F7A656E6100436172CC
:102730006420696E73657274656400534420696E29
:102740006974206661696C0046696C652073656C0C
:1027500065637465640046696C65206F70656E65BD
:10276000643A20006572726F722077726974696EC4
:102770006720746F2066696C650053442063617242
:1027800064206F6B0043616E6E6F7420656E7465BC
:1027900072207375626469723A20005072617679B2
:1027A0003A0052696768743A004F626E6F766F76CE
:1027B000616E69207469736B7500526573756D691C
:1027C0006E67207072696E74004F626E6F76656E10
:1027D00069207469736B7500526573756D696E67F6
:1027E000207072696E7400506F6B7261636F7661F6
:1027F0007400526573756D65207072696E74005255
:102800006573656E643A20004F64737472616E7410
:1028100065207469736B6F767920706C6174207AAF
:1028200020686561746265642070726F73696D2ED3
:1028300000506C656173652072656D6F76652073FD
:102840007465656C2073686565742066726F6D20B1
:10285000686561746265642E0050726F73696D20E3
:1028600076796A6D6574652075727963686C656EDA
:10287000652066696C616D656E7400506C6561738E
:10288000652070756C6C206F75742066696C616D65
:10289000656E7420696D6D6564696174656C79003D
:1028A000686F77746F2E707275736133642E637AFC
:1028B00000686F77746F2E707275736133642E6366
:1028C0006F6D00666F72756D2E7072757361336413
:1028D0002E637A00666F72756D2E70727573613338
:1028E000642E636F6D00707275736133642E637A4A
:1028F00000707275736133642E636F6D0054697379
:102900006B20706F7A6173746176656E00507269C6
:102910006E7420706175736564005469736B207008
:102920007265727573656E005072696E74206162B3
:102930006F727465640050726F20767973756E756E
:1029400074692066696C616D656E74752073746955
:10295000736B6E6574652070726F73696D20746C33
:10296000616369746B6F00506C6561736520707290
:1029700065737320746865206B6E6F6220746F20BE
:10298000756E6C6F61642066696C616D656E740054
:1029900050726F206E61687261746920747279730D
:1029A0006B79206120706F6B7261636F76616E6905
:1029B00020737469736B6E65746520746C616369F0
:1029C000746B6F2E005072657373206B6E6F622094
:1029D000746F2070726568656174206E6F7A7A6CAE
:1029E0006520616E6420636F6E74696E75652E007C
:1029F0006120737469736B6E65746520746C6163B8
:102A000069746B6F00616E642070726573732074FB
:102A10006865206B6E6F62005072656465687265F0
:102A20006A746520747279736B75210050726568E1
:102A300065617420746865206E6F7A7A6C65210018
:102A4000507265646568726576005072656865618C
:102A50007400506F77657255700050726F73696DB6
:102A60002063656B656A746500506C6561736520F1
:102A700077616974004E656A6472697665207A616F
:102A8000766564746520504C412066696C616D65A3
:102A90006E742070726F73696D2E00506C65617377
:102AA00065206C6F616420504C412066696C616DDB
:102AB000656E742066697273742E004A6520504CEE
:102AC000412066696C616D656E74207A617665641B
:102AD000656E3F00497320504C412066696C616D02
:102AE000656E74206C6F616465643F002020506CDB
:102AF000616E6E6572427566666572427974657361
:102B00003A2000556D6973746574652070726F7337
:102B1000696D207469736B6F767920706C617420B5
:102B20006E61206865617462656400506C656173F4
:102B30006520706C61636520737465656C207368D3
:102B4000656574206F6E20686561746265642E002F
:102B50004E6168726976616E692050494E44410049
:102B600050494E44412048656174696E6700504980
:102B700044206B616C2E202020202020202020204B
:102B800020005049442063616C2E2020202020200A
:102B9000202020202000504944206B616C2E20759D
:102BA0006B6F6E63656E61005049442063616C2EEB
:102BB0002066696E697368656400504944206B61E2
:102BC0006C696272616365005049442063616C699D
:102BD00062726174696F6E00506F7A6173746176AE
:102BE0006974207469736B0050617573652070722D
:102BF000696E7400556D697374657465206C6973D2
:102C00007420706170697275206E6120706F646CE1
:102C10006F7A6B752061207564727A756A746520AD
:102C20006A656A20706F6420747279736B6F7520A7
:102C3000626568656D206D6572656E69207072767B
:102C40006E696368203420626F64752E20506F6B4C
:102C5000756420747279736B61207A61636879742A
:102C6000692070617069722C207679706E65746568
:102C7000207469736B61726E752E00506C616365B0
:102C80002061207368656574206F662070617065CF
:102C90007220756E64657220746865206E6F7A7A32
:102CA0006C6520647572696E672074686520636165
:102CB0006C6962726174696F6E206F6620666972FA
:102CC0007374203420706F696E74732E20496620EF
:102CD000746865206E6F7A7A6C65206361746368CE
:102CE0006573207468652070617065722C20706F48
:102CF000776572206F666620746865207072696EF1
:102D000074657220696D6D6564696174656C792E96
:102D1000006F6B004F6666004E6F206D6F76652EFC
:102D2000005A61646E61205344206B6172746100CB
:102D30004E6F205344206361726400547279736B48
:102D400061004E6F7A7A6C650046696C616D656EE4
:102D500074206E657A61766564656E0046696C61A3
:102D60006D656E74206E6F74206C6F6164656400B5
:102D70004261727661206E656E6920636973746169
:102D800000436F6C6F72206E6F7420636F72726598
:102D90006374004E65004E6F0050726F73696D2052
:102DA000616B7475616C697A756A74652E00506C1C
:102DB0006561736520757067726164652E00567970
:102DC000736C61206E6F7661207665727A6520661D
:102DD00069726D776172653A004E65772066697237
:102DE0006D776172652076657273696F6E206176AA
:102DF00061696C61626C653A00506F73756E6F75D6
:102E000074205A004D6F7665205A00506F73756EAE
:102E10006F75742059004D6F7665205900506F739F
:102E2000756E6F75742058004D6F7665205800459B
:102E300078747275646572004B616C69627261636B
:102E400065205A2E204F746163656E696D20746C25
:102E5000616369746B6120706F73756E7465205A5D
:102E6000206F737520617A206B7E686F726E696D5A
:102E70007520646F72617A752E20506F747672645B
:102E8000746520746C616369746B656D2E004361B9
:102E90006C6962726174696E67205A2E20526F7479
:102EA00061746520746865206B6E6F6220746F209A
:102EB0006D6F766520746865205A2063617272694F
:102EC00061676520757020746F2074686520656E79
:102ED000642073746F70706572732E20436C696325
:102EE0006B207768656E20646F6E652E004B616C99
:102EF0006962726163652058595A2E204F7461636C
:102F0000656E696D20746C616369746B6120706FAC
:102F100073756E7465205A206F737520617A206B0B
:102F20007E686F726E696D7520646F72617A752E3E
:102F300020506F74767264746520746C6163697478
:102F40006B656D2E0043616C6962726174696E67B6
:102F50002058595A2E20526F746174652074686528
:102F6000206B6E6F6220746F206D6F7665207468C1
:102F700065205A20636172726961676520757020EF
:102F8000746F2074686520656E642073746F707050
:102F90006572732E20436C69636B207768656E20C1
:102FA000646F6E652E00506F73756E6F7574206F51
:102FB0007375004D6F76652061786973004D657398
:102FC0006820426564204C6576656C696E670054C4
:102FD00065706C6F74790054656D7065726174759D
:102FE000726573004B616C69627261636500436175
:102FF0006C6962726174696F6E00207A20390020FA
:103000006F662039004D6572696D20726566657264
:10301000656E636E69207679736B75206B616C6980
:10302000627261636E69686F20626F6475004D65DE
:1030300061737572696E67207265666572656E632D
:103040006520686569676874206F662063616C69D4
:1030500062726174696F6E20706F696E74004D6585
:1030600072656E65207A6B6F73656E693A004D65A7
:1030700061737572656420736B65773A005B303BF2
:10308000305D20706F696E74206F666673657400C2
:10309000486C61766E69206E616269646B61004D97
:1030A00061696E004D32323120496E76616C69641F
:1030B00020657874727564657220004D3231382055
:1030C000496E76616C6964206578747275646572A6
:1030D00020004D32303020496E76616C6964206585
:1030E0007874727564657220005265706F727469CD
:1030F0006E6720656E6473746F702073746174758D
:1031000073004D313137204B616C2E207072766E1A
:103110006920767273747679004D313137204669B3
:10312000727374206C617965722063616C2E004D3E
:1031300031303920496E76616C696420657874722B
:103140007564657220004D31303520496E76616CB2
:10315000696420657874727564657220004D313041
:103160003420496E76616C69642065787472756488
:103170006572200055766F6C6E656E612072656DAC
:10318000656E69636B61004C6F6F73652070756C61
:103190006C6579005A61766573742066696C616D3F
:1031A000656E74004C6F61642066696C616D656E5C
:1031B00074005A61766164656E692066696C616D40
:1031C000656E7475004C6F6164696E672066696C2A
:1031D000616D656E740043697374656E6920626128
:1031E000727679004C6F6164696E6720636F6C6FF3
:1031F00072004C6576793A004C6566743A005679EF
:10320000626572206A617A796B610053656C6563EF
:1032100074206C616E6775616765004365737469DE
:103220006E6100456E676C697368004B494C4C4594
:10323000442E2000496E76616C6964206578747252
:103240007564657200566C6F7A74652066696C618E
:103250006D656E7400496E736572742066696C6189
:103260006D656E7400547279736B2E2076656E7482
:103270003A004E6F7A7A6C652046414E3A004578A6
:1032800074727564657220696E666F004B616C695B
:103290006272756A69205A0043616C696272617476
:1032A000696E67205A004B616C69627261636520C8
:1032B0004F4B0043616C6962726174696F6E206488
:1032C0006F6E65004B616C6962726F766174205A33
:1032D0000043616C696272617465205A005A6168CA
:1032E000726976616E69204F4B2E00486561746982
:1032F0006E6720646F6E652E005A61687269766130
:103300006E690048656174696E67004348594241BF
:103310003A2046696C616D656E742073656E7A6FD4
:1033200072206E6572656167756A652C207A6B6FB5
:103330006E74726F6C756A7465207A61706F6A65FD
:103340006E692E004552524F523A2046696C616DAB
:10335000656E742073656E736F72206973206E6F73
:103360007420726573706F6E64696E672C20706C68
:103370006561736520636865636B20636F6E6E655E
:103380006374696F6E2E00462E206175746F7A61CA
:10339000762E205B7A61705D00462E206175746F19
:1033A0006C6F616420205B6F6E5D00462E2061753E
:1033B000746F7A61762E205B7679705D00462E20E0
:1033C0006175746F6C6F6164205B6F66665D00464B
:1033D0002E206175746F7A61762E205B4E2F415DD1
:1033E00000462E206175746F6C6F6164205B4E2FF8
:1033F000415D0046696C2E2073656E7A6F72205BAA
:103400007A61705D0046696C2E2073656E736F7211
:1034100020205B6F6E5D0046696C2E2073656E7AAE
:103420006F72205B7679705D0046696C2E20736543
:103430006E736F72205B6F66665D0046696C2E204E
:1034400073656E7A6F72205B4E2F415D0046696C2A
:103450002E2073656E736F72205B4E2F415D0020CE
:1034600046726565204D656D6F72793A200054692A
:10347000736B61726E61206E6562796C61206A6542
:10348000737465207A6B616C6962726F76616E61CC
:103490002E20506F73747570756A74652070726F2A
:1034A00073696D20706F646C65206D616E75616C01
:1034B000752C206B617069746F6C61205A6163694F
:1034C0006E616D652C206F64737461766563205046
:1034D0006F73747570206B616C6962726163652EC5
:1034E000005072696E74657220686173206E6F742B
:1034F000206265656E2063616C69627261746564E7
:10350000207965742E20506C6561736520666F6C40
:103510006C6F7720746865206D616E75616C2C200E
:103520006368617074657220466972737420737485
:103530006570732C2073656374696F6E2043616CD2
:103540006962726174696F6E20666C6F772E0050CD
:103550007275746F6B00466C6F7700446F6B6F6EA3
:10356000636F76616E6920706F6879627500466975
:103570006E697368696E67206D6F76656D656E74D0
:103580007300207A203400206F66203400486C6578
:1035900064616D206B616C69627261636E69206247
:1035A0006F6420706F646C6F7A6B79005365617221
:1035B0006368696E67206265642063616C6962722A
:1035C0006174696F6E20706F696E7400446F6E6510
:1035D00020736176696E672066696C652E00446FA2
:1035E0006E65207072696E74696E672066696C65BD
:1035F00000536F75626F72206E656B6F6D706C65D6
:10360000746E692E20506F6B7261636F7661743FC8
:103610000046696C6520696E636F6D706C657465DA
:103620002E20436F6E74696E756520616E797761C7
:10363000793F004E656B7465726520736F75626FBC
:103640007279206E656275646F7520736574726936
:1036500064656E792E204D6178696D616C6E6920AC
:10366000706F63657420736F75626F72752070720E
:103670006F20736574726964656E69206A652031B4
:1036800030302E00536F6D652066696C657320774E
:10369000696C6C206E6F7420626520736F72746544
:1036A000642E204D61782E204E6F2E206F6620668E
:1036B000696C657320696E203120666F6C64657279
:1036C00020666F7220736F7274696E672069732051
:1036D0003130302E0053656E7A6F722066696C61EE
:1036E0006D656E74750046696C616D656E742073EE
:1036F000656E736F720046696C616D656E742076DD
:1037000079746C6163656E20612073707261766E8E
:10371000652062617276793F0046696C616D656E05
:103720007420657874727564696E672026207769E5
:10373000746820636F727265637420636F6C6F725C
:103740003F0056796D656E69742066696C616D65C0
:103750006E74004368616E67652066696C616D65B3
:103760006E7400527963686C6F73742076656E7442
:103770002E0046616E207370656564004B6F6E7439
:10378000722E2076656E742E5B7A61705D004661E4
:103790006E7320636865636B2020205B6F6E5D0035
:1037A0004B6F6E74722E2076656E742E5B76797018
:1037B0005D0046616E7320636865636B20205B6FFC
:1037C00066665D00656E717565696E6720220045ED
:1037D00078747275646572002045787465726E61E4
:1037E0006C205265736574005072696E7465722046
:1037F00073746F707065642064756520746F2065E4
:1038000072726F72732E2046697820746865206525
:1038100072726F7220616E6420757365204D393944
:103820003920746F20726573746172742E2028546D
:10383000656D70657261747572652069732072655B
:103840007365742E205365742069742061667465F5
:10385000722072657374617274696E6729004E6FAD
:10386000204C696E65204E756D62657220776974B3
:103870006820636865636B73756D2C204C6173748D
:10388000204C696E653A20004E6F20436865636B7B
:1038900073756D2077697468206C696E65206E752C
:1038A0006D6265722C204C617374204C696E653AB0
:1038B000200020746F6F206C6F6E672065787472C3
:1038C0007573696F6E2070726576656E74656400DD
:1038D0004C696E65204E756D626572206973206E4D
:1038E0006F74204C617374204C696E65204E756D49
:1038F0006265722B312C204C617374204C696E65AB
:103900003A20005072696E7465722068616C74654B
:10391000642E206B696C6C28292063616C6C656473
:10392000210020636F6C6420657874727573696F11
:103930006E2070726576656E746564006368656399
:103940006B73756D206D69736D617463682C204CA9
:10395000617374204C696E653A20004348594241B6
:103960003A004552524F523A00456E642066696CE7
:1039700065206C697374006F70656E00545249471E
:10398000474552454400656E6473746F70732068D8
:1039900069743A2000536C6565702E2E2E0056799E
:1039A000706E6F7574206D6F746F727900446973F7
:1039B00061626C65207374657070657273004E652A
:1039C000706C61746E6520686F646E6F7479206EC0
:1039D0006173746176656E692E204275646520702E
:1039E0006F757A69746F20767963686F7A69205091
:1039F00049442C20457374657073206174642E00F3
:103A00004F6C642073657474696E677320666F759C
:103A10006E642E2044656661756C74205049442C98
:103A200020457374657073206574632E2077696C0C
:103A30006C206265207365742E00446174756D3A64
:103A400000446174653A00506F757A6520616B744B
:103A500075616C6E690043757272656E7400204307
:103A60006F756E7420583A200056796D656E61202E
:103A70006F6B3F004368616E67656420636F7272AD
:103A80006563746C793F005A63686C6164697400A3
:103A9000436F6F6C646F776E0050726F2075737038
:103AA00065736E6F75206B616C696272616369200A
:103AB0006F636973746574652070726F73696D20CC
:103AC0007469736B6F766F7520747279736B752E72
:103AD00020506F74767264746520746C61636974CD
:103AE0006B656D2E00506C6561736520636C65615C
:103AF0006E20746865206E6F7A7A6C6520666F72CE
:103B00002063616C6962726174696F6E2E20436C10
:103B100069636B207768656E20646F6E652E004464
:103B20006F6A656C79206F6261205A20766F7A69BE
:103B30006B79206B7E686F726E696D7520646F7231
:103B4000617A753F00417265206C65667420616E14
:103B500064207269676874205A7E63617272696159
:103B600067657320616C6C2075703F00204C617339
:103B70007420557064617465643A200056796265FA
:103B80007274652065787472756465723A00436872
:103B90006F6F73652065787472756465723A005052
:103BA000726F73696D206F746576726574652069D4
:103BB000646C65722061206D616E75616C6E65204C
:103BC0006F64737472616E74652066696C616D6593
:103BD0006E742E00506C65617365206F70656E2089
:103BE00069646C657220616E642072656D6F7665C4
:103BF0002066696C616D656E74206D616E75616CB7
:103C00006C792E005A6D656E612075737065736EE8
:103C10006121004368616E67652073756363657336
:103C20007321005661726F76616E693A20646F731A
:103C30006C6F206B65207A6D656E65207479707588
:103C4000207469736B61726E792E005761726E69B0
:103C50006E673A207072696E74657220747970654F
:103C6000206368616E6765642E005661726F7661CD
:103C70006E693A20646F736C6F206B65207A6D6596
:103C80006E652074797075206D6F74686572626FEF
:103C9000617264752E005761726E696E673A206DAD
:103CA0006F74686572626F617264207479706520E8
:103CB0006368616E6765642E005661726F76616E2F
:103CC000693A20646F736C6F206B65207A6D656E46
:103CD000652074797075207469736B61726E7920D8
:103CE00061206D6F74686572626F617264752E0019
:103CF0005761726E696E673A20626F7468207072E5
:103D0000696E746572207479706520616E64206DCF
:103D10006F74686572626F61726420747970652077
:103D20006368616E6765642E005469736B207A2046
:103D30005344005072696E742066726F6D20534454
:103D4000005465706C6F742E206B616C69627261D7
:103D500063650054656D702E2063616C69627261E9
:103D600074696F6E005A6B616C6962726F76617410
:103D70000043616C696272617465005265736574B9
:103D80002058595A206B616C6962722E005265731B
:103D900065742058595A2063616C6962722E004B19
:103DA000616C6962726163652058595A0043616CA5
:103DB0006962726174652058595A002042726F77A7
:103DC0006E206F7574205265736574004265676973
:103DD0006E2066696C65206C697374004B616C6958
:103DE00062726163652058595A206E6570726573FE
:103DF0006E612E204C65767920707265646E692044
:103E0000626F64206D6F63207670726564752E003A
:103E100058595A2063616C6962726174696F6E20CF
:103E2000636F6D70726F6D697365642E204C65668B
:103E3000742066726F6E742063616C696272617463
:103E4000696F6E20706F696E74206E6F742072657A
:103E500061636861626C652E004B616C69627261BE
:103E600063652058595A206E65707265736E612EB5
:103E700020507265646E69206B616C696272616367
:103E80006E6920626F6479206D6F63207670726551
:103E900064752E0058595A2063616C6962726174AE
:103EA000696F6E20636F6D70726F6D697365642EDC
:103EB0002046726F6E742063616C6962726174690E
:103EC0006F6E20706F696E7473206E6F74207265F0
:103ED00061636861626C652E004B616C696272613E
:103EE00063652058595A207620706F7261646B7533
:103EF0002E20582F59206F7379206D69726E6520BE
:103F00007A6B6F73656E652E20446F6272612070EC
:103F100072616365210058595A2063616C6962724D
:103F20006174696F6E20616C6C2072696768742EB1
:103F300020582F5920617865732061726520736C59
:103F4000696768746C7920736B657765642E2047A8
:103F50006F6F64206A6F6221004B616C69627261ED
:103F600063652058595A207620706F7261646B75B2
:103F70002E205A6B6F73656E6920627564652061CF
:103F800075746F6D617469636B79207679726F7681
:103F90006E616E6F20707269207469736B752E008C
:103FA00058595A2063616C6962726174696F6E203E
:103FB000616C6C2072696768742E20536B65772082
:103FC00077696C6C20626520636F727265637465DB
:103FD00064206175746F6D61746963616C6C792EB6
:103FE000004B616C6962726163652058595A207395
:103FF000656C68616C612E204B616C6962726163F3
:104000006E6920626F6420706F646C6F7A6B7920C8
:104010006E656E616C657A656E2E0058595A206324
:10402000616C6962726174696F6E206661696C654A
:10403000642E204265642063616C696272617469F8
:104040006F6E20706F696E7420776173206E6F746D
:1040500020666F756E642E004B616C6962726163DD
:10406000652058595A207620706F7261646B752EE6
:1040700020582F59206F7379206A736F75206B6FEA
:104080006C6D652E2047726174756C756A692100CC
:1040900058595A2063616C6962726174696F6E204D
:1040A0006F6B2E20582F59206178657320617265DF
:1040B0002070657270656E646963756C61722E2024
:1040C000436F6E67726174756C6174696F6E732192
:1040D000004B616C6962726163652058595A2073A4
:1040E000656C68616C612E204E61686C65646E65FC
:1040F000746520646F206D616E75616C752E00585B
:10410000595A2063616C6962726174696F6E2066CE
:1041100061696C65642E20506C6561736520636F06
:104120006E73756C7420746865206D616E75616C5A
:104130002E004B616C6962726163652058595A2088
:1041400073656C68616C612E204C657679207072A5
:1041500065646E6920626F64206D6F632076707293
:104160006564752E2053726F766E656A746520746F
:1041700069736B61726E752E0058595A2063616CB9
:104180006962726174696F6E206661696C65642E24
:10419000204C6566742066726F6E742063616C6972
:1041A00062726174696F6E20706F696E74206E6FD9
:1041B0007420726561636861626C652E004B616C8E
:1041C0006962726163652058595A2073656C686131
:1041D0006C612E20507265646E69206B616C69623F
:1041E0007261636E6920626F6479206D6F632076FF
:1041F00070726564752E2053726F766E656A746591
:10420000207469736B61726E752E0058595A206361
:10421000616C6962726174696F6E206661696C6558
:10422000642E2046726F6E742063616C69627261E5
:1042300074696F6E20706F696E7473206E6F742076
:10424000726561636861626C652E004B616C6962C6
:1042500072616365205A2073656C68616C612E2001
:1042600053656E736F72206A65206F64706F6A6544
:104270006E79206E65626F20707265727573656EFF
:1042800079206B6162656C2E2043656B616D206ED9
:10429000612072657365742E00426564206C6576DA
:1042A000656C696E67206661696C65642E20536574
:1042B0006E736F7220646973636F6E6E656374658D
:1042C00064206F72206361626C652062726F6B653F
:1042D0006E2E2057616974696E6720666F72207256
:1042E000657365742E004B616C6962726163652051
:1042F0005A2073656C68616C612E2053656E736F14
:1043000072206E657365706E756C2E205A6E6563D3
:10431000697374656E6120747279736B613F2043B9
:10432000656B616D206E612072657365742E00424D
:104330006564206C6576656C696E67206661696C82
:1043400065642E2053656E736F72206469646E74A9
:1043500020747269676765722E20446562726973A2
:10436000206F6E206E6F7A7A6C653F20576169749A
:10437000696E6720666F722072657365742E004BDC
:10438000616C696272616365205A2073656C686153
:104390006C612E2053656E736F72207365706E753D
:1043A0006C207072696C6973207679736F6B6F2EF5
:1043B0002043656B616D206E612072657365742E9C
:1043C00000426564206C6576656C696E6720666185
:1043D000696C65642E2053656E736F722074726908
:1043E00067676572656420746F6F20686967682EFF
:1043F0002057616974696E6720666F7220726573F9
:1044000065742E005A6168726976616E69207072F7
:1044100065727573656E6F2062657A7065636E6F25
:1044200073746E696D206361736F766163656D2E61
:104430000048656174696E672064697361626C65C8
:1044400064206279207361666574792074696D6592
:10445000722E005A6168726976616E6920626564C5
:10446000004265642048656174696E670042656456
:10447000204F4B2E0042656420646F6E65005670BD
:104480007261766F205B756D5D005269676874209C
:10449000736964655B756D5D005265736574005684
:1044A0007A61647520205B756D5D005265617220D4
:1044B00073696465205B756D5D004B6F72656B633E
:1044C0006520706F646C6F7A6B7900426564206C54
:1044D0006576656C20636F727265637400566C65F7
:1044E000766F20205B756D5D004C65667420736986
:1044F0006465205B756D5D00567072656475205B48
:10450000756D5D0046726F6E7420736964655B75CE
:104510006D5D00426564004E656E69207A6B616C6A
:104520006962726F76616E6120767A64616C656E25
:104530006F737420747279736B79206F642074695F
:10454000736B6F766520706F646C6F7A6B792E2059
:10455000506F73747570756A74652070726F7369CB
:104560006D20706F646C65206D616E75616C752C6B
:10457000206B617069746F6C61205A6163696E6150
:104580006D652C206F64737461766563204E617372
:10459000746176656E69207072766E6920767273CA
:1045A0007476792E0044697374616E636520626568
:1045B000747765656E20746970206F662074686515
:1045C000206E6F7A7A6C6520616E64207468652055
:1045D000626564207375726661636520686173202B
:1045E0006E6F74206265656E2073657420796574E2
:1045F0002E20506C6561736520666F6C6C6F772040
:10460000746865206D616E75616C2C2063686170E3
:104610007465722046697273742073746570732CAC
:104620002073656374696F6E204669727374206CC1
:10463000617965722063616C6962726174696F6E21
:104640002E00446F6C6164656E69206F7379205A27
:10465000004C6976652061646A757374205A004164
:10466000646A757374696E67205A004D6F64205BCD
:104670006175746F6D617469636B795D004D6F6412
:1046800065205B6175746F20706F7765725D0041A6
:1046900075746F20686F6D65004175746F5A61762F
:1046A0006564656E692066696C2E004175746F4C97
:1046B0006F61642066696C616D656E74004175742C
:1046C0006F6D617469636B65207A61766164656E94
:1046D000692066696C616D656E747520646F7374B2
:1046E00075706E6520706F757A6520707269207ABA
:1046F00061706E7574656D2066696C616D656E7450
:104700002073656E7A6F72752E2E2E004175746F50
:104710006C6F6164696E672066696C616D656E744B
:1047200020617661696C61626C65206F6E6C7920C6
:104730007768656E2066696C616D656E742073655F
:104740006E736F72206973207475726E6564206F6A
:104750006E2E2E2E004175746F6D617469636B65EA
:10476000207A61766164656E692066696C616D6549
:104770006E747520616B7469766E692C2073746930
:10478000736B6E65746520746C616369746B6F2004
:104790006120766C6F7A74652066696C616D656EF8
:1047A000742E2E2E004175746F6C6F6164696E6794
:1047B0002066696C616D656E742069732061637435
:1047C0006976652C206A7573742070726573732026
:1047D000746865206B6E6F6220616E6420696E7311
:1047E0006572742066696C616D656E742E2E2E0084
:1047F000207C20417574686F723A20005673650002
:10480000416C6C00416374697665204578747275FB
:104810006465723A2000CB12BB12DF12E712EF126E
:10482000F812151300132E132A1332134B133A13D5
:1048300076135C13CC1394132A140A14AE144D147B
:10484000BC151115B3167016591700170C18A017C0
:10485000B7186B184B1908199C1988190A1AB0193E
:10486000A11A521A0F1BEB1A441B2F1B671B581B54
:10487000B21B841B3D1CE01B9D1CA41CBE1CB41C55
:10488000E51CCA1C2D1D051D621D501D731D981DA4
:10489000841DCB1DAA1DFC1DEB1D1E1E0C1E311EF2
:1048A0004A1E441E4F1E611E731ED51EBA1E061FD1
:1048B000F41E2A1F181FB11F3C1F35202020522034
:1048C0004A2066205E207C206E2087209120C12017
:1048D000A520EA20DC200F21FD202E2120214921C6
:1048E0003C2167215A219D217421D121C821E92130
:1048F000D7210D22FB2131221F2253224322612284
:10490000802271229F228D22C322B122E622D5224B
:104910000423F522232311233E2334235623472344
:104920006D236323752396238723B023A123BF23FD
:10493000DB23CC23E923EF23132401242C24242478
:104940003F2435245E244C247F246E249A2488241A
:10495000B824AC24DB24C624EC24FD240D25162524
:1049600033251E25562544257A2568259E258C2528
:10497000C225B025E525D4250926F7252D261B2699
:1049800051263F2663267A2670268A2686268F267B
:10499000A126B326C626DC26CE26E926FB260F272F
:1049A0002D271F273B274827562764277A27852747
:1049B000A2279B27BA27A927D827C927F227E727A5
:1049C000FF27312808287B285928B128A028D42877
:1049D000C328F128E6280D29FD2828291A29672946
:1049E0003629C5299029052AF0292C2A182A4A2A6D
:1049F000402A522A692A5A2A9B2A752AD42ABB2A73
:104A0000EC2A2B2B032B602B502B822B6E2BA82BED
:104A1000962BC82BBA2BE82BD82B7B2CF42B112DE3
:104A2000142D182D302D212D422D3B2D5C2D492D7F
:104A3000812D702D962D932DAE2D992DD92DBE2D16
:104A4000042EF92D162E0B2E282E1D2E2F2E8E2ED7
:104A5000382E452FED2EB32FA62FBD2FD72FCF2FBA
:104A6000EE2FE42FFF2FFA2F2E3005306E305E3000
:104A70007D309F309030A430BB30D230E9301931D6
:104A800002312F3146315D3187317431A431943197
:104A9000C531B231E431D631F831F2310B32FE3169
:104AA00023321B322B323432553245327232653268
:104AB0007E3298328C32B332A632D132C432EB32EB
:104AC000DD320333F93244330B3399338733BD334B
:104AD000AB33E133CF330534F333293417344D345A
:104AE0003B345F34E1346E3456354F356E355B35CB
:104AF00087358235AC358D35CC35DE351136F1351F
:104B000084363336E636D5361937F63653374237DC
:104B1000723763378E377C37B237A037C437CF3719
:104B2000D837E8375E388838B238D0380339223978
:104B30003C3962395B39693977397C39863995393D
:104B4000AD399E39003ABE39413A3A3A563A473A77
:104B50005E3A743A693A903A873AE53A993A453B6F
:104B60001F3B6C3B8E3B7C3BD43B9F3B133C043C4C
:104B70004B3C233C963C6A3CF03CB93C333D293DE0
:104B8000533D413D713D653D8D3D7B3DAD3D9F3D7F
:104B9000BB3DCC3D103EDC3D943E593E163FD93ED8
:104BA000A03F593F1B40E13F90405840FF40D1405B
:104BB000794132410B42BD4199424B422F43E6427B
:104BC000C1437F43314404446144534475446D44BC
:104BD0008A447E449944AB449F44CB44BA44E9445C
:104BE000DD440445F8441345A54517455146424662
:104BF0005F467D466B468F46AB4699460C47BD46A1
:104C0000A5475547F0470048FC47044866696E646D
:104C10002062656420696E64756374696F6E2073C9
:104C2000656E736F7220706F696E74207A004578BC
:104C300072656D65207370616E206F6620746865A3
:104C4000205A2076616C7565732100536176696E18
:104C500067206265642063616C6962726174696F68
:104C60006E20766563746F727320746F20454550B3
:104C7000524F4D0050657270656E646963756C616A
:104C800072697479005A65726F20706F696E742052
:104C9000636F7272656374696F6E3A00592076654E
:104CA00063746F72206C656E6774683A0058207682
:104CB0006563746F72206C656E6774683A00203C9F
:104CC00020005741524E494E473A2046726F6E744B
:104CD00020706F696E74206E6F74207265616368F6
:104CE00061626C652E205920636F6F7264696E611A
:104CF00074653A000070745B315D3A0070745B302B
:104D00005D3A00004D656173757265643A00006339
:104D1000757272656E745F706F736974696F6E5BC4
:104D20005A5F415849535D3A000063757272656E6F
:104D3000745F706F736974696F6E5B595F41584936
:104D4000535D3A000063757272656E745F706F73C5
:104D50006974696F6E5B585F415849535D3A004111
:104D60007420592D340041742059300000636E7452
:104D7000725B315D3A0000636E74725B305D3A00C5
:104D8000007665635F795B315D3A00007665635F4D
:104D9000795B305D3A00007665635F785B315D3A40
:104DA00000007665635F785B305D3A00566563743A
:104DB0006F72733A2000497465726174696F6E3A5C
:104DC0002000000043616C63756C617465206F6640
:104DD0006673657420616E6420736B6577207265FD
:104DE0007475726E696E6720726573756C743A00C3
:104DF0000000292C206572726F723A20002C20006E
:104E0000293B207461726765743A2028002C2000C9
:104E1000293B206D656173757265642D636F7272D5
:104E200065637465643A2028002C20006D65617309
:104E3000757265643A202800706F696E74202300D3
:104E4000446966666572656E636520616674657245
:104E500020636F7272656374696F6E3A2000002C74
:104E6000200063656E7465722C2061646A757374CA
:104E700065643A2000002C20005920766563746F29
:104E8000722C2061646A75737465643A2000002C8A
:104E900020005820766563746F722C2061646A75F7
:104EA000737465643A200000636E74725B315D3A1E
:104EB0000000636E74725B305D3A0046696E616C2F
:104EC00020636E74722076616C7565733A00000021
:104ED0000077793A0000636E74725B315D3A0000CE
:104EE0005765696768745F793A000077783A00001F
:104EF000636E74725B305D3A000057656967687471
:104F00005F783A000056657279206C6974746C653C
:104F100020736B65772064657465637465642E2007
:104F20004F7274686F676F6E616C697A696E672023
:104F300074686520617865732E00004D61782E20BD
:104F40006572726F72206575636C696469616E3A2F
:104F5000004D61782E206572726F7220593A004DB3
:104F600061782E206572726F7220583A004D617818
:104F70002E206572726F72733A0000002C206572E9
:104F8000726F7220593A20002C206572726F722065
:104F9000583A20006572726F723A200029002C2066
:104FA00000293B207461726765743A2028002C2028
:104FB00000293B20636F727265637465643A202830
:104FC000002C20006D656173757265643A202800BD
:104FD000002C206572726F72203E206D61782E2049
:104FE0006572726F72206575636C696469616E00C9
:104FF000506F696E74206E6F74206F6E20666972D8
:10500000737420726F77003A00706F696E7420239A
:10501000004572726F7220616674657220636F72F0
:1050200072656374696F6E3A2000002C200063651E
:105030006E746572206E65772C20696E7665727469
:1050400065643A2000002C20005920766563746F57
:1050500072206E65772C20696E7665727465643A8D
:105060002000002C20005820766563746F72206E3B
:1050700065772C20696E7665727465643A2000004D
:105080002C2000636F7272656374696F6E20616EAD
:10509000676C65733A2000002C2000636F727265A4
:1050A0006374656420616E676C65733A2000002C40
:1050B0002000636F7272656374656420782F793A9B
:1050C0002000002C20002C20002C20003B20636FAF
:1050D0007272656374696F6E20766563746F723A7D
:1050E0002000697465726174696F6E3A200000294E
:1050F0002C206572726F723A20002C2000293B2010
:105100007461726765743A2028002C2000206D6558
:105110006173757265643A202800706F696E74203F
:105120002300002C200063656E7465722C20696E6C
:10513000697469616C3A2000002C20005920766562
:1051400063746F722C20696E697469616C3A200017
:10515000002C20005820766563746F722C20696ED5
:10516000697469616C3A200063616C63756C617489
:1051700065206D616368696E6520736B657720617A
:105180006E64206F6666736574204C5300000040A7
:1051900041000000400000E44200000040000057D1
:1051A0004300000040000057430000C4420000E4F8
:1051B000420000C442000040410000C442000040E0
:1051C00041000042430000E4420000424300005717
:1051D0004300004243000040410000804000005C6A
:1051E000430000804000005C430000444300004056
:1051F0004100004443062833D036C23E013F1541EA
:1052000032423B43F2443B45F24622473B48F24997
:105210003B4AF05898590C5A085B0C5C08611067BF
:105220009B6E2271077208FF095A0D000EFF1904C8
:105230005E0820642B6D322FFF45303A20005A3A29
:105240002000593A2000583A20004D53312C4D533C
:10525000322050696E730A005A00205A3A005900F1
:1052600020593A00580020583A0024F4D43050C352
:105270008E20C2A24017828B7011127A910D816C20
:10528000D90AA861E108C7586607615143061E4B59
:105290005D05C145A7041A411104093D9803713900
:1052A00031034036DB0265339102D4305402802E44
:1052B0001D02632CEE01752AC501B028A00110273C
:1052C00081018F2564012B244B01E0223401AC21A4
:1052D0001F018D200D01801FFC00841EED00971D15
:1052E000DF00B81CD200E61BC600201BBC00641AFD
:1052F000B200B219A8000A19A0006A189900D117C3
:10530000910040178B00B516840031167E00B3154E
:1053100079003A157300C7146F0058146A00EE1331
:1053200066008813630025135E00C7125B006C12D1
:10533000570015125400C111510070114F00211176
:105340004B00D61049008D10470046104400021053
:105350004200C00F4000800F3E00420F3C00060F8D
:105360003B00CB0E3800930E37005C0E3500270E45
:105370003400F30D3200C10D3100900D3000600D8E
:105380002E00320D2D00050D2C00D90C2B00AE0C7B
:105390002900850C29005C0C2700350C27000E0C19
:1053A0002600E80B2400C40B2400A00B23007D0B77
:1053B00023005A0B2100390B2100180B2000F80A9A
:1053C0001F00D90A1E00BB0A1E009D0A1D00800A8C
:1053D0001D00630A1C00470A1B002C0A1B00110A4F
:1053E0001A00F7091A00DD091900C4091900AB09F0
:1053F0001900920917007B091800630917004C096E
:10540000160036091600200916000A091500F508CD
:105410001500E0081400CC081400B8081400A40813
:105420001400900813007D0812006B081300580840
:105430001200460812003408110023081100120857
:10544000110001081100F0071000E0071000D0075C
:105450001000C0071000B0070F00A107100091074F
:105460000E0083070F0074070F0065070E00570733
:105470000E0049070E003B070D002E070E00200707
:105480000D0013070D0006070D00F9060C00ED06D0
:105490000D00E0060C00D4060C00C8060C00BC068B
:1054A0000C00B0060C00A4060B0099060C008D063B
:1054B0000B0082060B0077060B006C060B006106E2
:1054C0000A0057060B004C060A0042060A0038067E
:1054D0000A002E060A0024060A001A060A00100610
:1054E000090007060A00FD050900F4050900EB059F
:1054F0000900E2050900D9050900D0050900C70522
:105500000900BE050900B5050800AD050800A505A0
:1055100009009C050800940508008C050800840516
:1055200008007C050800740508006C050700650587
:1055300008005D050700560508004E0507004705F1
:1055400007004005080038050700310507002A0557
:105550000700230507001C050600160507000F05B8
:1055600007000805060002050700FB040600F50415
:105570000700EE040600E8040600E2040700DB046E
:105580000600D5040600CF040600C9040600C304C3
:105590000600BD040600B7040600B1040500AC0413
:1055A0000600A6040600A00405009B04060095045E
:1055B0000500900406008A040500850405008004A7
:1055C00006007A04050075040500700405006B04EC
:1055D000050066040500610405005C04050057042D
:1055E0000500520405004D0405004804050043046D
:1055F00005003E0404003A040500350405003004AB
:1056000004002C04050027040400230405001E04E4
:1056100004001A04040016040500110404000D041B
:105620000400090405000404040000040400FC0351
:105630000400F8030400F4030400F0030400EC0386
:105640000400E8030400E4030400E0030400DC03B6
:105650000400D8030400D4030400D0030400CC03E6
:105660000400C8030300C503030024F404D9201B6D
:10567000C40C5C0E9804C4095F0265077101F4054F
:10568000F900FB04B30048048700C1036900580314
:10569000550003034500BE023A0084023100530264
:1056A0002A002902250004022000E4011C00C80190
:1056B0001900AF0117009801140084011300710153
:1056C00010006101100051010E0043010D00360170
:1056D0000B002B010B0020010B00150109000C0130
:1056E000090003010800FB000800F3000800EB00BC
:1056F0000700E4000600DE000600D8000600D20025
:105700000600CC000500C7000500C2000500BD0072
:105710000400B9000400B5000400B1000400AD00AD
:105720000400A9000400A5000300A20003009F00DC
:1057300004009B0003009800030095000200930002
:105740000300900003008D0002008B00030088001E
:1057500002008600020084000300810002007F0036
:1057600002007D0002007B00020079000200770049
:105770000100760002007400020072000100710056
:1057800002006F0002006D0001006C0002006A0060
:105790000100690002006700010066000100650069
:1057A000010064000200620001006100010060006D
:1057B00001005F0002005D0001005C0001005B0071
:1057C00001005A0001005900010058000100570073
:1057D0000100560001005500010054000100530073
:1057E0000000530001005200010051000100500070
:1057F00001004F0001004E0000004E0001004D006E
:1058000001004C0001004B0000004B0001004A0069
:105810000100490001004800000048000100470065
:105820000100460000004600010045000000450060
:105830000100440001004300000043000100420059
:105840000000420001004100000041000100400052
:1058500001003F0000003F0001003E0000003E004C
:1058600001003D0000003D0001003C0000003C0044
:1058700000003C0001003B0000003B0001003A003A
:1058800000003A0001003900000039000100380032
:105890000000380000003800010037000000370029
:1058A000010036000000360000003600010035001F
:1058B0000000350000003500010034000000340015
:1058C000000034000100330000003300000033000A
:1058D00001003200000032000000320001003100FF
:1058E00000003100000031000100300000003000F5
:1058F0000000300001002F0000002F0000002F00EA
:1059000000002F0001002E0000002E0000002E00DD
:1059100001002D0000002D0000002D0000002D00D2
:1059200001002C0000002C0000002C0000002C00C6
:1059300001002B0000002B0000002B0000002B00BA
:1059400001002A0000002A0000002A0000002A00AE
:1059500001002900000029000000290000002900A2
:105960000000290001002800000028000000280095
:105970000000280000002800010027000000270088
:10598000000027000000270000002700010026007B
:10599000000026000000260000002600000026006F
:1059A0000100250000002500000025000000250062
:1059B0000000250000002500010024000000240054
:1059C0000000240000002400000024000100230047
:1059D000000023000000230000002300000023003B
:1059E000000023000000230001002200000022002C
:1059F000000022000000220000002200000022001F
:105A00000100210000002100000021000000210011
:105A10000000210000002100000021000100200002
:105A200000002000000020000000200000002000F6
:105A300000002000000020000000200001001F00E6
:105A400000001F0000001F0000001F0000001F00DA
:105A500000001F0000001F0001001E0000001E00CB
:105A600000001E0000001E0000004572723A204D2A
:105A7000494E54454D50204245440054656D706573
:105A80007261747572652068656174656420626511
:105A900064207377697463686564206F66662E207E
:105AA0004D494E54454D5020747269676765726563
:105AB000642021004572723A204D415854454D50A2
:105AC000204245440054656D70657261747572655D
:105AD0002068656174656420626564207377697409
